S01A0000626F6F746C6F616465725F627269636B6D6C2E737265639C
S31500000000A84C002005ED000031EB000001ED0000DA
S3150000001001ED000001ED000001ED000001ED000022
S3150000002000000000000000000000000001ED0000DC
S3150000003001ED00000000000001ED000001ED0000F0
S315000000402D3500006135000095350000B9350000FA
S31500000050DD35000000000000000000000000000088
S31500000060000000000000000000000000000000008A
S31500000070000000000000000000000000000000007A
S31500000080000000000000000000000000000000006A
S31500000090000000000000000000000000000000005A
S315000000A0000000000000000000000000000000004A
S315000000B0000000000000000000000000000000003A
S315000000C0000000000000000000000000000000002A
S315000000D0000000000000000000000000000000001A
S315000000E0000000000000000000000000000000000A
S315000000F000000000000000000000000000000000FA
S3150000010000000000000000000000000000000000E9
S3150000011000000000000000000000000000000000D9
S3150000012000000000000000000000000000000000C9
S3150000013000000000000000000000000000000000B9
S3150000014000000000000000000000000000000000A9
S315000001500000000000000000000000000000000099
S315000001600000000000000000000000000000000089
S315000001700000000000000000000000000000000079
S315000001800000000000000000000000000000000069
S315000001900000000000000000000000000000000059
S315000001A00000000000000000000000000000000049
S315000001B00000000000000000000000000000000039
S315000001C0FFFFFFFFFFFFFFFFFFFFFFFFFFFFFFFF39
S315000001D0FFFFFFFFFFFFFFFFFFFFFFFFFFFFFFFF29
S315000001E0FFFFFFFFFFFFFFFFFFFFFFFFFFFFFFFF19
S315000001F0FFFFFFFFFFFFFFFFFFFFFFFFFFFFFFFF09
S3150000020010B5054C237833B9044B13B1044800E00C
S3150000021000BF0123237010BD500A0020000000001B
S315000002204025010008B5034B1BB10349034800E014
S3150000023000BF08BD00000000540A00204025010050
S3150000024070B910B4EFF310844FF0E02309490A4A5D
S315000002500C6019691160186172B65DF8044B70473D
S315000002604FF0E0220449034B096811611B6883F3D0
S3150000027010887047700A00206C0A00200023F0B531
S3150000028085B003938DF80B3050B3012823D0022894
S3150000029042D10E224FF41021214FEFF310834FF07D
S315000002A0E026204C204D236000233069286033610E
S315000002B072B61E4801910EF025FB0390039B01992F
S315000002C09BB103204FF0E0232A681A61236883F369
S315000002D0108805B0F0BD0E224FF40031144FDCE754
S315000002E01C224FF400310E4FD7E77A1C0DF10B0399
S315000002F00E48521A0EF066FA0390039B53B92B6808
S315000003003361236883F310889DF80B00003818BF0B
S315000003100120D7E70220D5E7042005B0F0BD00BFD5
S31500000320FFFF0F00700A00206C0A0020A40A0020BC
S31500000330FFFF08002DE9F047602200256426B0B0D3
S3150000034029460DEB0200179510F07DF9354BDFF8C5
S31500000350E0E00FAC93E8030001908DF80810BEE8CA
S315000003600F000FC49EE80F0007C4DFF8C8A024F8EA
S31500000370023B0DF10C091B0C2370BAE80F00A9E82B
S315000003800F00DFF8B480DAF800300DF1200CA9F880
S315000003900030B8E80F00ACE80F0098E80700ACE8BA
S315000003A0030012212048214F0096ACF8002000F0EF
S315000003B07FF906E01A21384600F07AF9009B1D44C1
S315000003C000BF17AB4FF47A7269465819009600F0D1
S315000003D0E7F804460028F3D101A917A810F04AFA55
S315000003E00028E7D01F210FA800F062F9642502E07B
S315000003F0009B1C4400BF17AB4FF47A72694618196C
S31500000400009500F0CDF80028F4D103A917A810F044
S3150000041031FA0028ECD01A2108A800F049F930B0CA
S31500000420BDE8F08778090100480901005C09010070
S3150000043080090100A0090100B4090100002300B5EC
S3150000044085B068468DF8003001F018FC48B901A85F
S3150000045000F03EFF58B901A801F044FE05B05DF872
S3150000046004FB1721054B064A06480EF025FB2B21F7
S31500000470054B034A03480EF01FFB00BFD0090100DD
S315000004801C0A0100F4090100080A010038B5EFF35F
S315000004901081012383F310882A4B1A681AB9402465
S315000004A02948C270C4701A6801321A6081F3108834
S315000004B04FF400331A78FF2A2FD0244AD2F8543248
S315000004C09B0735D4D36923F0011323F4404343F04B
S315000004D00503D3611D4C1E4DD4F888312B4043F0E3
S315000004E00503C4F8883100F045F800F0F9F800B1CA
S315000004F0FEE7FFF71FFFD4F8883116492B4043F07B
S315000005000403C4F88831E36913482B4043F004031D
S31500000510E3610EF06DF970B1FEE75A78FF2ACCD18F
S315000005209A78FF2AC9D1DB78FF2BC6D1074AC9E7DB
S31500000530FFF784FFCEE7FFF7A1FE4FF4003000F08F
S3150000054039F9FEE7001B0020000D084000080840AE
S31500000550FE3FFEFF9C0A0100A40A0020022800D0EC
S315000005607047024B024859680EF008B8640A010049
S31500000570780A0020002310B5074C82B020460749B0
S315000005808DF8073005F0C4FB20460DF1070105F094
S315000005908DFB02B010BD00BF800A0020700A01006A
S315000005A070B50A4604468AB0802321462048126860
S315000005B005F096FCB8BB04461D4D1E4E24220021B4
S315000005C001A810F040F80DF1030101A805F074FB35
S315000005D09DF80320072A04D0092AEFD120460AB045
S315000005E070BDBDF8103003F47F43B3F5005F0CD047
S315000005F0B3F5045F10D0B3F5085FDFD100212846BC
S3150000060005F00AFD9DF80320E6E73146284605F089
S31500000610BBFC9DF80320DFE73146284605F0D8FCF1
S315000006209DF80320D8E740F2DC5420460AB070BD9E
S31500000630800A00200809002000B58BB02422002182
S3150000064001A810F000F801A80DF1030105F034FB34
S315000006509DF80300072802D00BB05DF804FBBDF837
S31500000660103003F47F43B3F5005F0CD0B3F5045F9D
S3150000067011D0B3F5085FEFD100210B4805F0CCFC93
S315000006809DF80300E8E702460849074805F07CFCA8
S315000006909DF80300E0E702460449034805F098FC8C
S315000006A09DF80300D8E700BF800A00200809002053
S315000006B010B504460A4680232146084805F03AFC50
S315000006C000B110BDFFF7B8FF4FF6FF7403E0FFF768
S315000006D0B3FF013CF5D00A28F9D110BD800A0020ED
S315000006E030B51D4C1D4D8BB02422002101A80FF002
S315000006F0AAFF0DF1030101A805F0DEFA9DF803201B
S31500000700072A05D000BF032AEED100200BB030BD6A
S31500000710BDF8103003F47F43B3F5005F07D0B3F59F
S31500000720045F0BD0B3F5085F0FD000BFDCE72946A6
S31500000730204605F029FC9DF80320E3E729462046DC
S3150000074005F046FC9DF80320DCE70021204605F075
S3150000075063FC9DF80320D5E7800A002008090020E5
S31500000760114A13780133DBB2092B1BD900210F4B39
S315000007701170187850B10E4A1970D36923F001131D
S3150000078023F4404343F00403D36170470121084A30
S315000007901970D36923F0011323F4404343F0050392
S315000007A0D361704713707047750A0020760A0020DF
S315000007B00008084001232DE9F047194684248246A3
S315000007C01E466B4DDFF8B881B8B02B704FF00A09A2
S315000007D001A8002943D0152301218DF80430FFF725
S315000007E067FF8422002117A802940FF02CFF42F223
S315000007F0107202A917A8FFF7D3FE07462FBBFFF713
S31500000800AFFF9DF85CC02F70BCF1040F00F0838031
S315000008103A460DF15E030DF1DE0013F8011F984212
S315000008200A44FAD1BCF1010F06D19DF85D30B342FE
S3150000083029D0711E8B4227D01523012101A88DF8DE
S315000008400430FFF735FF2978C0E7142F14D0FFF7DF
S3150000085087FF002301202B7038B0BDE8F087842283
S3150000086017A802940FF0EFFE4FF47A7202A917A8A8
S31500000870FFF796FE0746C1E709F1FF3919F0FF09B0
S3150000088016D02978A4E731469DF85E000144FF2979
S31500000890D2D19DF8DF10D2B29142CDD1B3420FD062
S315000008A00623012101A88DF80430FFF701FFCAE7EE
S315000008B0FFF756FF042085F8009038B0BDE8F087B2
S315000008C00020FFF7BDFC802352460DF15F01404634
S315000008D00EF004F881464FF47A7105200EF0F4F814
S315000008E00120FFF7ADFCB9F1000F04D101360AF182
S315000008F0800AF6B2D4E71523012101A88DF8043049
S31500000900FFF7D6FE182301A801218DF80430FFF762
S31500000910CFFE0820A0E74FF47A7105200EF0D4F838
S315000009200623144D01A8012103AC8DF80430FFF70E
S31500000930BFFE0FCD0FC495E8070003C403A82270BD
S315000009400FF090FF014603A8FFF7B2FE4FF47A714D
S3150000095064200EF0B9F8BFF34F8F0749074BCA68FA
S3150000096002F4E0621343CB60BFF34F8F00BFFDE795
S31500000970740A0020480A010000ED00E00400FA05B0
S31500000980A40A002008B5FFF781FD002008BD00BFBE
S315000009900FF03CBE38B50C460123114622460546EB
S315000009A001F0FCFA002811DB4CB1284601F07CFB73
S315000009B02378984204D103232370002038BD23787E
S315000009C0012B18BF02232370002038BD012038BD3B
S315000009D030B50D46816887B0102302AA1039044647
S315000009E001F0DCFA002837DB204601F05DFB02ABA4
S315000009F00DF1180C13F8012B904230D16345F9D153
S31500000A0003232B70A1680123903921F07F01204632
S31500000A100DF10702A1F5807101F0C0FA00281BDB79
S31500000A209DF80730204603F00F021B092B716A70F0
S31500000A3001F03AFB9DF80730834231D101220023B1
S31500000A406A702B71A3682046903B23F07F02803AA0
S31500000A50A91CFFF79FFF50B1012007B030BD124B14
S31500000A6002991A6891420CD002232B70CAE7A26839
S31500000A702046903A22F07F02E91CFFF78BFF07B071
S31500000A8030BD03995A689142EED104999A68914211
S31500000A90EAD1059ADB689A42E6D101232B70B1E7C9
S31500000AA06B78042BCAD8CDE7140C010070B586B05C
S31500000AB0012004A901F03AFA10B1FF2006B070BD7A
S31500000AC0049802A9FFF784FF0446049801F064FA2B
S31500000AD0002CF2D1022001A901F028FA002841D009
S31500000AE04FF0030EF4469DF808000423441E18BF79
S31500000AF00124254A9DF80B509DF80A6002F10C016D
S31500000B00042B06D0052B25D0C31AB3FA83F35B0951
S31500000B1063B15378042B04D0052B20D1BCF1010F0F
S31500000B2004D09378042B06D0AB4204D0914213D064
S31500000B3012F8063FE4E7D378042B01D07345F5D1CC
S31500000B401379042B01D0B342F0D15079831E022BC6
S31500000B50B4D9B2E72346DBE7012006B070BD634592
S31500000B60E4D1DEE704A90198FFF732FF04460198B5
S31500000B7001F012FA012CB3D0002C9ED19DF810C0C2
S31500000B809DF813E0AFE700BF240C01002DE9F0410A
S31500000B90B6B007460AA89DF8F050884616461C4689
S31500000BA00FF072FB334A302302EBC501496852F855
S31500000BB0352009680292114402A803AA0EF054F9DE
S31500000BC0002851D1DDE902531D44294602A807AB8E
S31500000BD004AA0EF0ABF9002846D1059A072A43D19C
S31500000BE0254906980FF012FD00283DD1089A082ADB
S31500000BF03AD1224909980FF009FD002834D1032182
S31500000C000AA800F0F5FF78BB294603AA02A80EF051
S31500000C1067F948BBDDE9022313449D4224D1AB1A90
S31500000C202DA90AA800F0FCFDF0B92DA90AA800F02C
S31500000C303BFEC8B904F1FF3CB444C6F1010303EB23
S31500000C400C051CF80149002CF9D0334642463946BA
S31500000C5000950AA80FF00EFB04460AA80FF016FB33
S31500000C60204636B0BDE8F0814FF0FF34204636B05E
S31500000C70BDE8F081AC0B0100440C0100380C01000A
S31500000C802DE9F04F7C49D9B00968649C38A80391D6
S31500000C9092469846629FDDF88C9100F0F9FF00219C
S31500000CA038A800F0F9FF14B1659B002B79DCBAF87F
S31500000CB00A30BAF808601E44DAF80C30F61818BF85
S31500000CC0002507D119E05A46394638A801F03AF806
S31500000CD0AE4212D9A6EB050BCB4528BFCB4629461B
S31500000CE03A4640465B4601F059F95D440028EAD091
S31500000CF00446204659B0BDE8F08F0DA938A801F08A
S31500000D0067F8669B5BB1669D0DAC0FCC2860696089
S31500000D10AA60EB600FCC28616961AA61EB610023D0
S31500000D205146009342464FF6FF7307A800F044FB76
S31500000D3004460028DDD14FF0FF35DFF848A1DFF883
S31500000D4040910DF1160305AA06A907A800F080FB3D
S31500000D50031E7ADB7ED1BDF81630102B27D0012B6F
S31500000D603ED0222BEDD16B1CEBD0DAF80030AB4233
S31500000D7068DDBDF81430802B75D84046069938AA30
S31500000D8001F00CF90028B3D1EDB22021BDF81430E2
S31500000D90009538AA0DA8FFF7F9FE03904FF0FF352E
S31500000DA0CFE721461A4638A800F0CCFF7FE7BDF80A
S31500000DB01460202E57D133464046069938AA01F0D2
S31500000DC0EDF80446002894D1324638A90DA8FFF75D
S31500000DD0DFFD0446D9F8003083428AD10124B0E70A
S31500000DE0BDF81430202B3ED84046069938AA01F0AB
S31500000DF0D5F8054600283DD19DF81470202F21D83E
S31500000E00DAF800B0BBF1000F1CDD1C4E1DA800F087
S31500000E103FFF00211DA800F03FFFD6E900131DA8E3
S31500000E201A6800F08FFF15A91DA800F0D1FF3A46F9
S31500000E3038A915A80FF0EAFB0836002881D001353D
S31500000E405D45E3D14FF0FF357BE71C46204659B0A0
S31500000E50BDE8F08F64B10A4B039A1B68934205D034
S31500000E60054B1C6845E74FF0FF3442E7039C40E71B
S31500000E7001243EE704463CE710090020AC0B0100C4
S31500000E80E80A0020A80B01002DE9F043364B89B093
S31500000E90064600200D461C6801F0FCF806A9C0B203
S31500000EA001F044F818B1204609B0BDE8F0832946A0
S31500000EB001F0F0F82C2707A9C0B207FB056701F07F
S31500000EC035F880B9079801F0EFF80446079801F065
S31500000ED063F87B1E07F1030C01E063450ED013F89F
S31500000EE0012FA242F9D04FF02C0808FB05F806EBBB
S31500000EF00809D9F8101011F0100107D0012406983E
S31500000F0001F04AF8204609B0BDE8F0834FF480733B
S31500000F100193164B3A4600930846CDE90311069B0A
S31500000F200291FFF7ADFE0446114B56F808200698CD
S31500000F309A4206D1B9F80820D9F80C30D1438B4231
S31500000F4002D955B90124DBE7134482689342F8D2EB
S31500000F50084B1B68A342D3D0F3E70021826801F057
S31500000F6043F82C460698CBE7100900200C11002008
S31500000F703DB8F396E80A002030B504461C2583B038
S31500000F800120626A01A9019501F06AF890B9019BF6
S31500000F900220226D01A9A362019501F061F80546C0
S31500000FA060B9019B206A636501F054F8E065284644
S31500000FB003B030BD0125284603B030BD09252846BB
S31500000FC003B030BD2DE9F84FDDE90AB616B3884601
S31500000FD0924699460024114F07E02B463A46504662
S31500000FE000F0E6FF98B9A64214D9351BB5F5806F17
S31500000FF028BF4FF4806504EB09013A4640462B466C
S3150000100000F0CCFF04EB0B012C440028E5D00120B6
S31500001010BDE8F88F0020BDE8F88F00BF4C0B00201C
S315000010202DE9F0470446884600219F4A9F4B084613
S3150000103088B06262236501F02DF804F12001C0B288
S3150000104000F074FF002840F00C81012101F022F825
S3150000105004F14C01C0B200F069FF002840F00181A4
S315000010602046FFF789FF20B10123984284F85830C3
S3150000107016D0002322462046194600F037F90546C9
S3150000108058B904F12C0903464A460121204600F0CE
S315000010902DF9204600F048F980BB012384F858302A
S315000010A00123834E8DF8173000212046FFF7ECFE12
S315000010B005463368834209D0E06C00F06DFF206A74
S315000010C000F06AFF284608B0BDE8F0870023CDE9A6
S315000010D00433CDE90633226A537888F8043053681E
S315000010E0E06CC8F80830C8F8004000F055FF206AE8
S315000010F000F052FF284608B0BDE8F08701266D4B88
S315000011002846CDE90655CDE90463FFF7CFFC831EDB
S31500001110022B054640F28180C0B2042884F85800AC
S315000011208DF8170064D801286ED9012002A900F0B5
S31500001130FDFE002840F0B180022003A900F0F6FE73
S31500001140002840F0A380A76A002F00F081800646A1
S315000011500546636A314603EBC503D3F804A002983B
S31500001160524600F041FF002874D10135AF42564483
S31500001170EFD10023DDE90221204601960093FFF717
S3150000118021FF002842D1236D01465A68039800F0DA
S315000011902BFF002873D1D4E91423013B52F83310F6
S315000011A002EBC30312680398891A5A6800F01CFF01
S315000011B000285DD1029800F0EFFE039800F0ECFEE7
S315000011C094F85830FF2B18D0012B0FD0224600215F
S315000011D0204604AB00F08AF8054600287FF46CAF81
S315000011E04A460121204604AB00F080F8304E5BE70A
S315000011F00528EBD0FF2384F8583040F60F012E4B1C
S315000012002E4A2F480DF058FCF4D1EFE740F2016169
S315000012102C4B2D4A2A480DF04FFC31462046FFF74D
S3150000122033FE234E336898420CD0012805D005239F
S3150000123084F858308DF81730C8E784F858008DF8D0
S31500001240170031E7E8B284F858008DF817006CE70C
S315000012503E468EE74FF48A611A4B1C4A18480DF039
S315000012602BFC40F2AF71174B144A15480DF024FCC5
S3150000127040F2AD41134B154A11480DF01DFC40F2EA
S31500001280A541104B114A0E480DF016FC40F24A419A
S315000012900C4B0E4A0A480DF00FFC40F24641094B32
S315000012A00A4A07480DF008FC4C0F00202C100020BD
S315000012B0E80A002001010001880C0100B00C0100C1
S315000012C0540C01004C0C01009C0C01008C0C01001C
S315000012D0054B10B560220446002118460FF0B3F9FD
S315000012E02146FFF79DFE10BDEC0A002010B5002038
S315000012F082B0144600F0CEFE01A9C0B200F016FE80
S3150000130010B1012002B010BD2246014620230198EB
S3150000131000F044FE0446019800F03EFE201E18BF71
S31500001320012002B010BD00BFF0B5866A1C2E2CD875
S31500001330476D1C2F29D84FF0000E72467346F446AF
S315000013407146B34201D3BA422ED2614510D01ED2A5
S31500001350446ABEF1020F04EBC304646803F101039F
S31500001360214412D0B3424FF0010EECD26145EED1CA
S31500001370456A046D05EBC30504EBC2046D68646839
S315000013802944A44401330132DBE70020F0BD046D9B
S31500001390BEF1010F04EBC204646802F10102A44429
S315000013A0F3D04FF0020ECCE7B342EED1D01BB0FA29
S315000013B080F04009F0BD00BF2DE9F04782B09DF8EE
S315000013C028A0002841D00D4600293ED01746002A05
S315000013D03BD00E899946CB6804461E440423314609
S315000013E038460DEB030200F0D9FD804668BB46F691
S315000013F00812BDF80430934218D06A892ABB46F613
S315000014000712934221D16B89BDF8062033441A4452
S315000014100436C4E904626760A4F80890256084F87D
S315000014200AA0E360404602B0BDE8F087BDF806308A
S315000014306989994209D10423384601AA314400F04A
S31500001440ADFD10B9BDF80430D9E74FF0FF38E9E734
S3150000145000285BD02DE9F0431F460368044683B09D
S31500001460002B38D04068002835D089469046D4E90C
S3150000147004128A4246D94FF6FF761DE004232169FD
S315000014800DEB030200F08AFD28BBA37A216913B194
S31500001490E368994236D22389B34221D0BDF80420AD
S315000014A09A421DD0BDF80650636904352944994215
S315000014B0216127D2D4E900305B89002BDED0E368B6
S315000014C08B42DBD10423043121610DEB030200F0D2
S315000014D065FD0028D9D04FF0FF3003B0BDE8F0839A
S315000014E017B1BDF804303B800431C9F80010BDF8CF
S315000014F006202369111D0B44A8F80020236103B0C0
S31500001500BDE8F083012003B0BDE8F0834FF0FF3063
S31500001510704700BF2DE9F04390F800C085B0BCF1DC
S31500001520030F04D03E4C204605B0BDE8F0831D46AF
S31500001530436D0446002BF5D0836D884607334FEA8A
S31500001540D30909EB89000421800817460EF0A2FE94
S315000015500646002862D04F453A4628BF4A464FEA1B
S31500001560490727F00307414600EB47080744A9EB64
S31500001570020040440FF05AF82278072A16D8052AA6
S315000015801FD8033A012A19D80023CDE902334A4667
S31500001590314628460DF064FEC8B16FF007043046A8
S315000015A00EF07EFE204605B0BDE8F0830C2A05D17C
S315000015B04FF000710023CDE90213E8E74FF0FF3446
S315000015C0EDE74FF080720023CDE90223DFE705F156
S315000015D00C0029F003054A4671190DF041FE00285A
S315000015E0DBD14A4639460C980DF03AFE0028D4D194
S315000015F03D444A4629460D980DF032FE0446002821
S31500001600CBD1434632460195009703A902A800F0C4
S315000016100DF8044B002818BF1C46C0E7024C82E7B1
S3150000162080B1FFFF00B2FFFF80B2FFFF2DE9F0415E
S315000016300646A8B02E9D0F462868696896469846C5
S31500001640AA68EB680DF10C0CACE80F002869696913
S31500001650AA69EB692F9CACE80F0020686168A26854
S31500001660E368ACE80F00E36920696169A269ACE848
S315000016700F0033688BB1B3F1807F0CBF1C21222190
S31500001680002313AC01201A46CDF800E001940CF0BB
S31500001690EDFD20B128B0BDE8F0811621F0E7224625
S315000016A003AC43463946304600940AF033FB28B073
S315000016B0BDE8F08138B50025044600F8045B0DF05E
S315000016C0EBFC04F110000DF0E7FC04F11C000DF03A
S315000016D0E3FC04F128000DF0DFFC04F134000DF00A
S315000016E0DBFC04F140000DF0D7FC04F14C000DF0DA
S315000016F0D3FCC4E91655C4E91855C4E91A55C4E91A
S315000017001C55A56738BD00BF10B50446FFF7D2FFCC
S3150000171004F180000DF0C0FC04F18C000DF0BCFC5F
S3150000172004F198000DF0B8FC04F1A400BDE81040E7
S315000017300DF0B2BC002843D0036E70B5012B0646EF
S3150000174022D1706FD0B1B36FC3B1002505EBC504CC
S3150000175010EB840405F101050CD020460DF0A2FC27
S3150000176004F10C000DF09EFC04F118000DF09AFC3B
S31500001770D6E91D03AB42E9D80EF092FD3046BDE82E
S31500001780704080210EF092BD04300DF08BFC06F106
S3150000179010000DF087FC06F11C000DF083FC06F12D
S315000017A028000DF07FFC06F134000DF07BFC06F1FD
S315000017B040000DF077FC06F14C000DF073FCC0E71D
S315000017C0704700BFA8B110B50446FFF7B3FF04F198
S315000017D080000DF067FC04F18C000DF063FC04F151
S315000017E098000DF05FFC04F1A400BDE810400DF078
S315000017F059BC704710B5012104460DF0B5FC00B187
S3150000180010BD012104F10C000DF0AEFC0028F7D14B
S31500001810014604F11800BDE810400DF0A5BC00BF5C
S31500001820002B3AD02DE9F041044604301D460F4600
S3150000183016460DF0DFFC236B8046C3B1E36BB3B1F4
S3150000184033786BB1042B12D143000133AB4222D162
S315000018500246711C38460DF0D3FC58B1BDE8F08144
S31500001860012D18D13846BDE8F041FFF7C3BF0C483B
S31500001870BDE8F08108F101014246314407F10C0050
S315000018800DF0BEFC0028E9D107F118000121BDE8E2
S31500001890F0410DF069BC0348E0E70248704700BF1D
S315000018A080B1FFFF80B0FFFF2DE9F0410F460646ED
S315000018B086B0012107F118000DF062FE002840F005
S315000018C05A81336B002B00F0A180F36B002B00F0E4
S315000018D09D800146044638460DF052FE0028C0F2AF
S315000018E04A8107F10C08214640460DF049FE0028C2
S315000018F0C0F24181351D294638460DF0EFFD00281E
S3150000190080F23981294640460DF0E8FD002880F234
S31500001910328168460DF0C0FB03A80DF0BDFB4246C0
S31500001920414668460EF09AF8044648B168460DF0FE
S31500001930B9FB03A80DF0B6FB204606B0BDE8F08162
S31500001940736E002B67D0009B002BC0F2C0806846E8
S315000019500DF02AFCB36DB0EB430F00F239816846F7
S31500001960736E984704460028E0D1009B002B18DAD6
S31500001970002168460DF004FE98B12A46694668467D
S315000019800DF018FF04460028D0D1009B002BEFDB9A
S3150000199007E02A46694668460DF078FE04460028A8
S315000019A0C4D1294668460DF099FD0028F1DA3A4679
S315000019B0394603A80EF052F804460028B6D1736ED5
S315000019C0002B00F0CE80039B002BC0F2F28003A810
S315000019D00DF0EAFBB36DB0EB430F00F2F980736EC6
S315000019E003A89847044668B1A0E7002103A80DF0B4
S315000019F0C7FD58B303A92A4608460DF0DBFE044688
S31500001A00002893D1039B002BEFDB1FE0764C20468A
S31500001A1006B0BDE8F0812A46694668460EF096FB98
S31500001A200446002882D13A46394603A80EF016F835
S31500001A30044600287FF47AAFC1E703A92A46084680
S31500001A400DF024FE044600287FF470AF294603A853
S31500001A500DF044FD0028F0DAB369002B00F08D800C
S31500001A6003A9084606F110020DF0A4FE044648B18B
S31500001A705CE703A92A4608460DF008FE044600283E
S31500001A807FF454AF294603A80DF028FD0028F0DAAC
S31500001A9003A93A4608460DF0E1FF044600287FF404
S31500001AA045AF736E002B00F09580039B002BC0F2B0
S31500001AB0888003A80DF078FBB36DB0EB430F00F2FE
S31500001AC08780736E03A898470446B0B12EE70021BD
S31500001AD068460DF055FD00283FF439AF78E0002147
S31500001AE003A80DF04DFDA8B103A92A4608460DF03E
S31500001AF061FE044600287FF419AF039B002BEEDB42
S31500001B0008E003A92A4608460DF0C0FD0446002851
S31500001B107FF40CAF294603A80DF0E0FC0028F0DAAC
S31500001B2003A9084606F11C020DF044FE044648B11E
S31500001B30FCE603A92A4608460DF0A8FD044600283F
S31500001B407FF4F4AE294603A80DF0C8FC0028F0DAAD
S31500001B50684603A90DF0C2FC244B041E18BF1C46A0
S31500001B60E4E603A92A4608460EF0F0FA04460028E1
S31500001B703FF472AFDAE61D4CDEE603A903220846FF
S31500001B800DF068FE044680B1D0E6002103A80DF0F2
S31500001B90F7FC00283FF47CAF03A92A4608460DF05F
S31500001BA009FE044600287FF4C1AE039B002BECDB44
S31500001BB06EE7014603A80DF0E3FC00283FF407AFEB
S31500001BC006E0014603A80DF0DBFC00283FF471AFE8
S31500001BD0054CABE603A92A4608460EF0B7FA0446BA
S31500001BE000289DD0A2E600BF80B0FFFF80B3FFFFB4
S31500001BF038B504460D46FFF79DFD2046FFF75AFD12
S31500001C00032D257027D1012508231549154AE160C2
S31500001C1062621549154A616522631549154AC4E988
S31500001C200153C4E90753C4E91353C4E90A53C4E989
S31500001C300D53E163A264C4E91055201D0DF0B4FAFA
S31500001C40034604F14C00A3650DF0AEFA03460020EE
S31500001C50C4E9173538BD00232370074838BD00BFD7
S31500001C60400D0100C00C0100200D0100E00C010038
S31500001C70000D01001409002080B1FFFF08B50CF02B
S31500001C80C7FA002814BF6FF06F00002008BD00BF20
S31500001C906C2200210EF0D7BC002310B4C0E900333B
S31500001CA0C9B91A4C1A4B1B4AC0E902431A4B1B4CC2
S31500001CB0C0E904231A4B02F16452C0E90643A2F5B7
S31500001CC0CF12184BA2F61D32C0E9082381665DF8D3
S31500001CD0044B00207047144C144B154AC0E90243CC
S31500001CE0144B154CC0E90423A3F12153A3F56D331E
S31500001CF0A3F28F23C0E90643104A114B8166C0E95F
S31500001D0008235DF8044B0020704700BF6A09E667A8
S31500001D10BB67AE853C6EF372A54FF53A510E527F06
S31500001D209B05688C5BE0CD19C1059ED8367CD5072E
S31500001D303070DD17F70E5939FFC00B3164F98FA7E4
S31500001D40BEFA4FA452B32DE9F8430368054603F0E3
S31500001D503F079B180E461446036002D343680133BF
S31500001D6043601FB1C7F14008444519D23F2C0BD937
S31500001D7024F03F0842463146284600F0AFF858B9ED
S31500001D8004F03F04464434B105F1280022463146AA
S31500001D9038440EF04BFC0020BDE8F8830020704765
S31500001DA005F128094246314609EB07000EF03EFCD4
S31500001DB049464022284600F091F80028ECD13C44E0
S31500001DC0403C3F2C07464644D2D8002CE3D0DBE704
S31500001DD070B50446802203680D4603F03F03581C85
S31500001DE03828234483F8282004F1280663D8C0F154
S31500001DF03802002130440EF026FCD4E900305A0F98
S31500001E0042EAC002DB0012BA1BBAC4E91823314603
S31500001E104022204600F062F800284BD1A3682B70C0
S31500001E20A3681B0A6B706389AB70E37AEB70E36897
S31500001E302B71E3681B0A6B71E389AB71E37BEB7172
S31500001E4023692B7223691B0A6B72638AAB72E37C6C
S31500001E50EB7263692B7363691B0A6B73E38AAB735B
S31500001E60E37DEB73A3692B74A3691B0A6B74638B05
S31500001E70AB74E37EEB74E3692B75E3691B0A6B7540
S31500001E80E38BAB75E37FEB75236A2B76236A1B0A1C
S31500001E906B76638CAB7694F82330EB76A36E4BB9F6
S31500001EA0636A2B77636A1B0A6B77E38CAB7794F8CC
S31500001EB02730EB7770BDC0F14002002130440EF0B0
S31500001EC0C2FB40223146204600F008F80028F1D136
S31500001ED00146382230460EF0B6FB8EE7F0B50646D0
S31500001EE015460F4689B02022002168460EF0ABFB4E
S31500001EF006F10804EA1C6B4639462046920809F0AA
S31500001F00C5F980B9EC468646BCE80F00B060F160C2
S31500001F1032617361BCE80F00B061F16132627362D5
S31500001F20704609B0F0BD6FF06F0EF9E770B5124D4F
S31500001F3004462B780E465BB1012C13D0022C15D02B
S31500001F400024D4210D4B0E4A0E4834600CF0B4FD2B
S31500001F500D4A0E4B116818680CF04AFC40B9012373
S31500001F602B70E9E70A4B0020336070BD094BFAE796
S31500001F704FF0FF3070BD00BF0C120020600D010055
S31500001F80C40D0100700D0100B00A0100B40A010081
S31500001F90D40D0100E00D0100704700BF10B5446884
S31500001FA0104621441A460EF041FB002010BD00BF2A
S31500001FB0944610B54268EFF310844FF0010E8EF38D
S31500001FC0108840787F2803D0002084F3108810BD45
S31500001FD004480A44006861460CF080FC84F31088CB
S31500001FE010BD00BFB40A010043787F2B01D0062044
S31500001FF07047436810B51944DAB10023B1F5803F44
S3150000200034BF4FF4005C4FF4004C184663449A42C8
S3150000201000F10100FAD8EFF31084012383F310884E
S31500002020084B024618680CF06DFC84F3108810B952
S3150000203010BD1046EFE740F2B711034B034A0448C0
S315000020400CF03AFDB40A01009C0D0100B00D010030
S31500002050700D010043787F2B0CBF80200020704755
S315000020600138012802D900235B78FFDE10B4002373
S315000020704FF4004402F1040CD80342F833004CF844
S31500002080334001331C2BF7D100205DF8044B0B6065
S31500002090704700BF29B1012914BF4FF0FF3002205D
S315000020A070470120704700BFFF20704710B5074CEE
S315000020B0207800B910BD064B18680CF0C3FA08B9B1
S315000020C0207010BD4FF0FF3010BD00BF0C12002075
S315000020D0B40A010081F30888BFF34F8FBFF36F8FF7
S315000020E0004700BF30B502688368128983B0D158B3
S315000020F0D41865680191FFF7D9FF064A002394605A
S3150000210083F30A882846019903B0BDE83040FFF7FB
S31500002110E1BF00BF00ED00E01B4B1B88012B00D088
S315000021207047837F10B5022B0CBF802182218AB0B5
S31500002130C26804698DF80630838C121B042B039247
S315000021408DF8071011D0052B18D0032B12D040F2B2
S31500002150DC53ADF8083090F8203001A909208DF83D
S31500002160043001F029FF0AB010BD40F2DE53ADF88D
S315000021700830F0E70023ADF80830ECE740F2DF5313
S31500002180ADF80830E7E700BF78130020154B1B8831
S31500002190012B00D0704700B5837F8BB0012B8DF8E3
S315000021A006301AD0ABB181238DF80730818C40F20E
S315000021B0DC53012908BF002390F8202001A90A203A
S315000021C08DF80420ADF8083001F0F6FE0BB05DF88E
S315000021D004FB82238DF80730E8E780238DF807306B
S315000021E0E4E700BF7813002010B5044631B900F0CB
S315000021F0F9FDC30517D54FF4807010BD00F06AFED7
S31500002200204600F07FFE10F4807F204606D000F0C6
S31500002210BFFE800A0130800180B210BD00F0CEFE04
S31500002220C0F30A0010BD204600F010FE00F07F004B
S3150000223010BD00BF2DE9F843554B90F820700446B9
S3150000224033F817300D469BB2022B52D000F04CFCEF
S315000022502946204600F082FC2946204600F0CCFCA8
S315000022602946204601F088FE2946204600F032FE27
S31500002270642207FB02F2DFF8208105EB850302EBFF
S31500002280430343445988AE001FFA87F9204600F0FD
S3150000229055FEB9F1010F68D07319642607FB06F6DF
S315000022A006EB430646442046F18800F0A3FE20468E
S315000022B0318900F0B7FE2046002100F00BFE2946CA
S315000022C0204600F059FF2946204601F041FE2946E6
S315000022D0204600F0F3FE2946204600F0BBFC2946C6
S315000022E0204600F0DBFC29462046BDE8F84300F016
S315000022F0F9BC0022274B43F8212002F093FB8046CD
S315000023002946204694F8207000F0EEFB2946204628
S3150000231000F024FC2946204600F06EFC08F1FF3848
S315000023202946204601F028FE1FFA88F8294620464D
S3150000233000F0D0FDB8F1010F1FFA87F9DFF85880D9
S315000023401CD8642207FB02F205EB850302EB43036C
S3150000235043445988204641F48061598000F0EEFDDF
S31500002360B9F1010F4FEA850696D1731908EB4303BD
S315000023702046B3F8681000F0F9FD8DE764230A22C1
S3150000238007FB03F302FB053343445988AE007DE7A0
S31500002390341A0020101200206012002070B5334B52
S315000023A090F82020054633F812300E469BB2022BD9
S315000023B003D100222E4B43F821203146284601F056
S315000023C0DBFD3146284600F08FFB3146284600F0FB
S315000023D0C5FB3146284600F00FFC48F22F034FF4A8
S315000023E000420021284600F02DFA0021284600F080
S315000023F0F3F910F02F04F8D13146284600F06AFDB3
S315000024002146284600F09AFD2146284600F0AEFDFA
S315000024102146284600F0EEFD2146284600F002FE41
S315000024202146284600F056FD3146284600F0A4FE17
S315000024303146284601F08CFD3146284600F03EFE26
S315000024403146284600F044FF3146284600F05EFF3C
S315000024503146284600F0FEFB3146284600F01EFCB9
S3150000246031462846BDE8704000F03CBC341A0020D6
S315000024701012002070B501224FF6FF7406460D4675
S3150000248000F0E0FE2946304600F0E4FD013C8306FC
S31500002490A4B200D470BD002CF4D170BD70B5054651
S315000024A01646A2B164240BE0284600F05BF8013C16
S315000024B0284600F0ABF8A4B20A2001F02FF8C4B108
S315000024C03146284600F046FA8304EDD570BD41EA50
S315000024D00304114648F22F0344F4004200F0B2F917
S315000024E00021284600F078F900F02F008442F7D149
S315000024F0D8E7FF2070BD00BF02B1704738B543EA88
S315000025000104114648F22F0344F40042054600F048
S3150000251099F90021284600F05FF900F02F039C424C
S31500002520F7D138BD30B504460D4683B0019200F0B0
S31500002530EDFE29462046019A00F006FF2946204670
S3150000254003B0BDE8304000F0A5BE00BF38B5044674
S315000025500D4600F0BDFE29462046BDE8384000F095
S31500002560D5BE00BF094B90F8202033F812309BB23D
S31500002570022B01D0002070471AB9054B188880B28B
S315000025807047044B188880B2704700BF341A002089
S315000025900000094000101140012805D1034A1388A4
S315000025A09BB243F480731380704700BF0010114044
S315000025B0094B90F8202033F812309BB2022B00D042
S315000025C07047012AFCD1054A138823F480731B0443
S315000025D01B0C1380704700BF341A002000101140F6
S315000025E0084B90F8202033F812309BB2022B00D013
S315000025F07047012AFCD1044A13889BB243F080033A
S3150000260013807047341A002000101140094B90F8CF
S31500002610202033F812309BB2022B01D000207047E5
S315000026201AB9054B988880B27047044B988880B2D7
S31500002630704700BF341A0020000009400010114006
S31500002640094B90F8202033F812309BB2022B01D0B0
S31500002650002070471AB9054B188980B27047044BA1
S31500002660188980B2704700BF341A00200000094064
S3150000267000101140064B90F8202033F812309BB220
S31500002680022B00D07047002AFCD0024B998170477C
S31500002690341A002000101140084B90F8202033F81F
S315000026A012309BB2022B01D0002070470029FBD1CB
S315000026B0012AF9D1024B5869704700BF341A00202D
S315000026C000101140074B90F8200033F810309BB2F1
S315000026D0022B00D070470029FCD1012804BF024B11
S315000026E05A617047341A002000101140094B90F8C7
S315000026F0202033F812309BB2022B01D00020704705
S315000027000029FBD1012A0BBF034B044BD88A988AB8
S3150000271080B27047341A00200010114000000940B2
S31500002720134B90F8200033F810309BB2022B05D0E3
S31500002730012914D002290FD059B170470128F7D1C9
S31500002740012912D002290DD00029F6D1094BDA82CF
S315000027507047094B9A827047074B9A837047064B1E
S315000027601A837047034BDA83E7E7024B5A837047B5
S31500002770341A00200010114000000940134B90F855
S31500002780200033F810309BB2022B05D0012914D05B
S3150000279002290FD059B170470128F7D1012912D06B
S315000027A002290DD00029F6D1094BDA757047094B7D
S315000027B01A757047074B1A777047064B1A7670479B
S315000027C0034BDA77E7E7024BDA767047341A0020D4
S315000027D00010114000000940134B90F8202033F8F8
S315000027E012309BB2022B1CD1012912D0022907D12B
S315000027F00E490F4B012A18BF0B46188880B2704746
S3150000280079B90C490C4B012A18BF0B46188880B2BF
S3150000281070470A490A4B012A18BF0B46188880B22E
S31500002820704700231B88FFDE341A00202C00094065
S315000028302C101140200009402010114028000940AA
S315000028402810114010B5194C90F820E034F81E00FD
S3150000285080B2022826D101291CD0022907D11449A9
S315000028601448BEF1010F0CBF8C46844607E0C9B977
S3150000287011491248BEF1010F0CBF8C468446BCF8C4
S31500002880001003EA02008AB222EA03030343ACF80B
S31500002890003010BD0A490B48BEF1010F0CBF8C4633
S315000028A08446ECE700231B88FFDE00BF341A0020B5
S315000028B02C1011402C000940201011402000094026
S315000028C0281011402800094010B41B4C90F8200035
S315000028D034F810309BB2022B04D1012926D00229EC
S315000028E01ED0B9B1002134F810309BB2022B02D0B1
S315000028F05DF8044B70470B8823F440631B041B0CE4
S315000029000B80002AF4D00B885DF8044B9BB21A4367
S315000029100A80704709490A4B012818BF1946E2E7A1
S315000029200849094B012818BF1946DCE70749084B37
S31500002930012818BF1946D6E7341A00202010114086
S31500002940200009402C1011402C000940281011408D
S3150000295028000940164B90F8202033F812309BB21D
S31500002960022B21D1012917D0022907D11149124B77
S31500002970012A18BF0B46188880B27047A1B903F127
S3150000298080430E4903F5881303F58153012A18BFC6
S315000029900B46188880B2704709490A4B012A18BFAE
S315000029A00B46188880B2704700231B88FFDE00BFE5
S315000029B0341A00202E0009402E1011402200094032
S315000029C02A0009402A101140144B90F8202033F8B1
S315000029D012309BB2022B1DD1012915D0022905D137
S315000029E00F49104B012A18BF194605E091B90E4947
S315000029F00E4B012A18BF19460B886FEA43436FEA4C
S31500002A0053439BB20B80704709490A4B012A18BFF2
S31500002A101946F1E700231B88FFDE00BF341A0020A9
S31500002A202E1011402E0009402210114022000940AC
S31500002A302A1011402A000940174B90F8202033F83D
S31500002A4012309BB2022B24D1012919D0022908D1B8
S31500002A50124B1349012A18BF0B464FF480421A80C5
S31500002A607047B1B903F180430E4903F5881303F5A6
S31500002A708153012A18BF0B464FF480421A807047D3
S31500002A80094B0A49012A18BF0B464FF480421A80A7
S31500002A90704700231B80FFDE341A00202E101140E1
S31500002AA02E000940220009402A1011402A00094040
S31500002AB00A4B90F8202033F812309BB2022B00D03C
S31500002AC0704701233AB1064AD08E03FA01F1014359
S31500002AD089B2D1867047034AF6E700BF341A002050
S31500002AE000101140000009400B4B90F8202033F8ED
S31500002AF012309BB2022B00D070474AB10122074820
S31500002B00C38E02FA01F19BB223EA0101C186704726
S31500002B1001220348F4E700BF341A002000101140D8
S31500002B20000009400A4B90F8202033F812309BB27F
S31500002B30022B00D0704701233AB1064A108F03FAE0
S31500002B4001F1014389B211877047034AF6E700BFD6
S31500002B50341A002000101140000009400B4B90F879
S31500002B60202033F812309BB2022B00D070474AB1B6
S31500002B7001220748038F02FA01F19BB223EA010101
S31500002B800187704701220348F4E700BF341A00208A
S31500002B900010114000000940134B90F8202033F834
S31500002BA012309BB2022B00D0704710B55AB90123E0
S31500002BB00E4C0F4824F81120428F03FA01F11143FD
S31500002BC089B2418710BD4FF0000E01230748094A1C
S31500002BD001F10A0C20F81CE003FA01F1538F1943A6
S31500002BE089B2518710BD00BF341A00203812002068
S31500002BF000000940001011400B4B90F8202033F8DC
S31500002C0012309BB2022B00D070474AB1012207480E
S31500002C10438F02FA01F19BB223EA01014187704713
S31500002C2001220348F4E700BF341A002000101140C7
S31500002C300000094020B9054BB3F8400080B2704748
S31500002C40034BB3F8400080B2704700BF0000094054
S31500002C50001011400E4B90F8202033F812309BB232
S31500002C60022B00D07047012342B903FA01F1C94390
S31500002C70084AC1F30901A2F84610704703FA01F1A8
S31500002C80C943054AC1F30901A2F84610704700BFBF
S31500002C90341A002000000940001011400E4B90F835
S31500002CA0202033F812309BB2022B00D0704701234C
S31500002CB042B903FA01F1C943084AC1F30901A2F86E
S31500002CC04810704703FA01F1C943054AC1F30901E7
S31500002CD0A2F84810704700BF341A002000000940CF
S31500002CE0001011400E4B90F8202033F812309BB2A2
S31500002CF0022B00D07047012342B903FA01F1C94300
S31500002D00084AC1F30901A2F84A10704703FA01F113
S31500002D10C943054AC1F30901A2F84A10704700BF2A
S31500002D20341A002000000940001011400A4B90F8A8
S31500002D30202033F812309BB2022B01D000207047BE
S31500002D4022B9064BB3F84C0080B27047044BB3F877
S31500002D504C0080B2704700BF341A002000000940C2
S31500002D600010114020B9054BB3F8540080B27047EB
S31500002D70034BB3F8540080B2704700BF000009400F
S31500002D800010114020B9054BB3F8560080B27047C9
S31500002D90034BB3F8560080B2704700BF00000940ED
S31500002DA00010114020B9054BB3F8580080B27047A7
S31500002DB0034BB3F8580080B2704700BF00000940CB
S31500002DC00010114020B9054BB3F85A0080B2704785
S31500002DD0034BB3F85A0080B2704700BF00000940A9
S31500002DE0001011400A4B90F8202033F812309BB2A5
S31500002DF0022B01D00020704722B9064BB3F85C00C5
S31500002E0080B27047044BB3F85C0080B2704700BFD5
S31500002E10341A00200000094000101140084B90F8B9
S31500002E20202033F812309BB2022B00D070471AB91B
S31500002E30044BA3F85C107047034BA3F85C10704773
S31500002E40341A002000000940001011400A4B90F887
S31500002E50202033F812309BB2022B01D0002070479D
S31500002E6022B9064BB3F85E0080B27047044BB3F844
S31500002E705E0080B2704700BF341A0020000009408F
S31500002E8000101140084B90F8202033F812309BB206
S31500002E90022B00D070471AB9044BA3F85E10704796
S31500002EA0034BA3F85E107047341A00200000094057
S31500002EB00010114020B9054BB3F8600080B270478E
S31500002EC0034BB3F8600080B2704700BF00000940B2
S31500002ED000101140084B90F8202033F812309BB2B6
S31500002EE0022B00D070471AB9044BA3F86410704740
S31500002EF0034BA3F864107047341A00200000094001
S31500002F00001011400A4B90F8202033F812309BB283
S31500002F10022B01D00020704722B9064BB3F8680097
S31500002F2080B27047044BB3F8680080B2704700BFA8
S31500002F30341A00200000094000101140084B90F898
S31500002F40202033F812309BB2022B00D070471AB9FA
S31500002F50044BA3F868107047034BA3F8681070473A
S31500002F60341A00200000094000101140064B90F86A
S31500002F70202033F812309BB2022B04D1012A04BF61
S31500002F80024BA3F86A107047341A00200010114053
S31500002F90084B90F8200033F810309BB2022B01D07A
S31500002FA0002070470028FCD0034BB3F86A0080B2BB
S31500002FB0704700BF341A0020001011400A4B90F8E9
S31500002FC0202033F812309BB2022B01D0002070472C
S31500002FD022B9064BB3F86C0080B27047044BB3F8C5
S31500002FE06C0080B2704700BF341A00200000094010
S31500002FF000101140084B90F8202033F812309BB295
S31500003000022B00D070471AB9044BA3F86C10704716
S31500003010034BA3F86C107047341A002000000940D7
S3150000302000101140084B90F8202033F812309BB264
S31500003030022B00D070471AB9044BA3F86E107047E4
S31500003040034BA3F86E107047341A002000000940A5
S31500003050001011404FF0000C134B90F8202082B066
S31500003060ADF806C033F812309BB2022B04D0BDF87F
S31500003070060080B202B0704762B181B10B4B03EB20
S3150000308041010B889BB2ADF80630BDF8060080B250
S3150000309002B0704729B1064B03EB4101F1E7054940
S315000030A0EFE70549EDE700BF341A00206E10114026
S315000030B06E00094060101140600009400B4B90F80B
S315000030C0202033F812309BB2022B00D0704742B159
S315000030D0074B03EB41010B889BB243F400530B8073
S315000030E07047044B03EB4101F5E700BF341A00209B
S315000030F06E1011406E0009400D4B90F8202033F8F9
S3150000310012309BB2022B00D0704742B9094A32F8FE
S3150000311011309BB243F4007322F811307047064A0F
S3150000312032F811309BB243F4007322F81130704725
S31500003130341A00206E0009406E1011400B4B90F8B7
S31500003140202033F812309BB2022B00D070474AB1D0
S31500003150074B03EB41010B8823F400731B041B0C84
S315000031600B807047034B03EB4101F4E7341A002050
S315000031706E1011406E000940174B90F8202033F86E
S3150000318012309BB2022B00D070474AB9D9B9134A04
S31500003190B2F860309BB243F48073A2F86030704797
S315000031A041B90F4AB2F860309BB243F48073A2F87B
S315000031B0603070470B4A32F811309BB243F480738B
S315000031C022F81130E0E7084A32F811309BB243F496
S315000031D0807322F811307047341A0020000009402D
S315000031E0001011406E1011406E000940104B90F80F
S315000031F0200033F810309BB2022B00D0704770B11C
S3150000320091B10C4B03EB41010B8823F003031B0424
S315000032101B0C0B800B889BB21A430A80704729B19E
S31500003220054B03EB4101EFE70449EDE70449EBE702
S31500003230341A00206E1011406E00094060101140D3
S31500003240600009400E4B90F8200033F810309BB216
S31500003250022B00D0704748B169B10A4B03EB41011C
S315000032600B889BB223EA02020A80704729B1064BFB
S3150000327003EB4101F4E70549F2E70549F0E700BF32
S31500003280341A00206E1011406E0009406010114083
S31500003290600009400B4B90F8202033F812309BB2A7
S315000032A0022B00D0704742B1074A89000A441388AE
S315000032B09BB243F4007313807047044A89000A44A2
S315000032C0F5E700BF341A00208C1011408C0009402D
S315000032D00B4B90F8202033F812309BB2022B00D013
S315000032E070474AB1074A89000A44138823F40073D9
S315000032F01B041B0C13807047034A89000A44F4E739
S31500003300341A00208C1011408C0009400B4B90F8A9
S31500003310202033F812309BB2022B00D0704742B106
S31500003320074A89000A4413889BB243F480731380CA
S315000033307047044A89000A44F5E700BF341A0020A2
S315000033408C1011408C000940094B90F8200033F88E
S3150000335010309BB2022B00D0704720B1054B89007C
S315000033600B441A807047044B89000B44F9E700BFF1
S31500003370341A00208E1011408E000940012807D112
S31500003380044AB2F802319BB243F48043A2F80231F8
S31500003390704700BF00101140012808D1044AB2F856
S315000033A0023123F480431B041B0CA2F80231704740
S315000033B000101140124B5A6870B911051CD5EFF375
S315000033C01081012282F310885A6822F400625A6042
S315000033D05B6881F310887047D2040DD5EFF3108136
S315000033E0012282F310885A6822F480525A605B6880
S315000033F081F310880020704740F2DD50704700BF0F
S3150000340000400840F0B460B3012801D0F0BC70471A
S3150000341091F91020CB7D02F160441B01DBB204F56B
S31500003420614484F80033394C394B44F8221002F1D8
S31500003430C00153F821406FF3104443F8214053F87C
S315000034402130BFF35F8F53099B0002F01F0203F187
S315000034506043904003F56143C3F880011860F0BCF7
S3150000346070472C4B2C4DD3F80024284E60F30412E1
S31500003470C3F800240A7D91F90D301201244CEF188F
S31500003480D2B287F8002303F1C00246F8231054F89D
S31500003490227060F3104744F8227054F82220BFF3DC
S315000034A05F8F4FF0010C5A09920003F01F0302F1DF
S315000034B0604202F561420CFA03F3C2F880311360F0
S315000034C0CB7C91F90C201B01DBB2154485F8003347
S315000034D002F1C00346F8221054F8231060F310419D
S315000034E044F8231054F82330BFF35F8F53099B0031
S315000034F002F01F0203F160430CFA02F203F5614386
S31500003500C3F880211A60F0BC704700BF041B00207E
S31500003510006000400000094000E100E001210BF0DE
S31500003520D3BA00BF4FF47A710BF0CEBAEFF3038330
S31500003530103B094A5BB2C03352F823106FF31041B7
S3150000354042F8231052F82330044B1B889BB2012B00
S3150000355000D1704701F0D6B900600040341A00204F
S31500003560EFF30383103B094A5BB203F1C00152F843
S3150000357021006FF3104042F8210052F82120044A3E
S3150000358052F82330987800F005BB00BF0060004079
S31500003590041B0020EFF30383103B064A5BB2C033E3
S315000035A052F823106FF3104142F8231052F82330DB
S315000035B0704700BF00600040EFF30383103B064AEC
S315000035C05BB2C03352F823106FF3104142F8231058
S315000035D052F82330704700BF00600040EFF30383CA
S315000035E0103B094A5BB2C03352F823106FF3104107
S315000035F042F8231052F82330044B5B889BB2012B10
S3150000360000D1704701F07EB900600040341A0020F6
S315000036102DE9F043012A0CBF784B794B0446B3F8E9
S3150000362040E0B3F84660B3F84880B3F84A70B3F8A0
S3150000363030C0D88E1D8F5B8F1FFA85F99DB200238F
S315000036401FFA8EFE1EF47F4F238083B0B6B21FFA98
S3150000365088F8BFB21FFA8CFC80B20B800ED00EEA3F
S315000036600C0313F4804F0CD0012A4BF6FF720CBFEB
S31500003670624B634BA3F840201223238003B0BDE8BE
S31500003680F08313F4004F0DD113F4005F17D0012A15
S315000036904DF6FF720CBF594B594BA3F8402013232C
S315000036A02380EBE7012A47F6FF720CBF534B544BBE
S315000036B0A3F840201123238003B0BDE8F08313F460
S315000036C0805F12D1304013F480761BD010F0010FCA
S315000036D018D0012A40F2FE320CBF484B484BA3F8E3
S315000036E04620012323800B80C8E7012A4EF6FF728D
S315000036F00CBF424B424BA3F8402014232380A1F871
S3150000370000E0BBE713F4806C07EA05070ED0FD075F
S315000037100CD5012A40F2FE320CBF384B384BA3F8C9
S315000037204A200222012322800B80A7E713F4007EA1
S3150000373008EA09050FD015F0010F0CD0012A40F256
S31500003740FE320CBF2D4B2E4BA3F84820032201233B
S3150000375022800B8092E71B051DD466B1C343012A64
S315000037600CBF264A264AC3F30903A2F846300123B2
S315000037702380088082E7BCF1000F2DD0FB43012A8D
S315000037800CBF1E4A1E4AC3F30903A2F84A3002239D
S3150000379023800F8072E7104601910092FFF74AFAE4
S315000037A00199009A08804FF2FF70012A0CBF134B53
S315000037B0134BA3F84000152323800B8803F007035F
S315000037C0062B7FF45BAF1046009100F0F3F900235F
S315000037D0009923800B8051E7BEF1000F3FF44EAFF6
S315000037E0EB43012A0CBF054A054AC3F30903A2F8B5
S315000037F04830032323800D8040E700BF00101140AE
S315000038000000094010B5044600F0D4F92046FFF741
S31500003810A9FA0246094B20461A80FFF7B3FA024678
S31500003820074B20461A80FFF7BDFA0246054B204695
S315000038301A80FFF7C7FA044B188010BD0016002047
S3150000384002160020F4150020F615002008B590F8A1
S315000038502000FFF7EFF900F07000A0F13000B0FA99
S3150000386080F0400908BD00BF38B50F4D04462B88CF
S3150000387003F47F43B3F5407F0AD006D8B3F5807FC3
S3150000388006D0B3F5007F03D038BDB3F5806FFBD10A
S3150000389020460021FEF7EEFE29882046BDE8384086
S315000038A0090AFEF7E7BE00BF2016002010B5044641
S315000038B090F8200000F06EF994F82000BDE8104062
S315000038C000F058B90B46022201461846FFF78EBC97
S315000038D002220021FFF78ABC2DE9F0411D4693F82C
S315000038E0203080460F46144613BB46083DD002EBF7
S315000038F0460634F8022B39462846FEF711FFB44235
S31500003900F7D118F0010F2BD0394628460022FEF7D2
S31500003910DBFF16F8012B39462846FEF72FFF28460F
S315000039204FF480623946FEF7CFFF3046BDE8F0819E
S31500003930860818D002EB860654F8042B394628462A
S31500003940FEF7C0FEB442F7D118F0020F1BD118F0F3
S31500003950010F0CD14FF4006239462846FEF7B4FF3A
S315000039603046BDE8F0811646EEE71646C9E7394609
S3150000397028460022FEF7A8FF3946284616F8012BEE
S31500003980FEF7FCFEE6E7394628464FF48062FEF76E
S315000039909BFF3946284636F8022BFEF7C1FED6E7CE
S315000039A02DE9F0411E4693F8203080460F46144616
S315000039B08BB9450833D002EB450539463046FEF74C
S315000039C095FE24F8020BAC42F7D118F0010F28D16E
S315000039D02846BDE8F08185081CD002EB85053946EE
S315000039E03046FEF759FE44F8040BAC42F7D108F016
S315000039F00308B8F1000FEBD039463046FEF74CFE0F
S31500003A00A84405F8010B45454FEA1020F9D1284690
S31500003A10BDE8F0811546B8F1000FD9D0ECE71546A0
S31500003A20D3E739463046FEF761FE05F8010B284616
S31500003A30BDE8F0812DE9F0410446154610460F46D3
S31500003A402146FEF717FD21462846FFF74DF8214689
S31500003A502846FFF783F821462846FFF7CDF821468A
S31500003A602846FEF773FD00212846FEF7B5FE00F056
S31500003A700F00844223D021462846DFF8548000F008
S31500003A8067FA21462846FFF719FB58F82460A6B1C5
S31500003A900E4B214653F8243028463361B784FFF78E
S31500003AA0D9FA58F824104B68F0841BB10022084656
S31500003AB011469847002348F82430BDE8F0810023DA
S31500003AC028461A461946FEF717FDD4E728130020A4
S31500003AD01012002010B5064C238803B910BDFFF75D
S31500003AE04DFC6420FFF71AFD0023238010BD00BFA4
S31500003AF00E1200200122024B1A80FFF74DBC00BFB8
S31500003B000E12002030B9074A13889BB243F0100307
S31500003B1013807047044A13889BB243F01003138046
S31500003B20704700BF000009400010114038B9054A2F
S31500003B30138823F010031B041B0C13807047024AE2
S31500003B40F6E700BF000009400010114030B9074AEF
S31500003B50138E9BB243F4804313867047044A138E38
S31500003B609BB243F480431386704700BF00000940B0
S31500003B700010114038B9054A138E23F480431B0404
S31500003B801B0C13867047024AF6E700BF0000094087
S31500003B90001011404BF6FF7218B9044BA3F84020F1
S31500003BA07047034BA3F84020704700BF0000094050
S31500003BB0001011404FF6F77218B9044BA3F84020D5
S31500003BC07047034BA3F84020704700BF0000094030
S31500003BD00010114040B9094AB2F860309BB243F078
S31500003BE00403A2F860307047054AB2F860309BB211
S31500003BF043F00403A2F86030704700BF000009409C
S31500003C0000101140F8B92E4B1A8892B242F4806225
S31500003C101A801A885205FCD505224FF480614FF4AC
S31500003C201D40C3F8F0201A8822F020021204120C5C
S31500003C301A801A8892B242F001021A8019841985F4
S31500003C4099851886704710B51E4C0120FFF766FC53
S31500003C50E38F012023F001031B041B0CE387FFF70E
S31500003C6061FCE38F23F002031B041B0CE38723880C
S31500003C7023F020031B041B0C238023889BB243F0F4
S31500003C8001032380B4F802319BB243F48043A4F8C5
S31500003C900231E388DB07FCD54FF470634FF4006212
S31500003CA000204FF41D416380E38F9BB243F4807381
S31500003CB0E38722842285A285A4F84000218610BDD0
S31500003CC0000009400010114088B90C4AB2F8603073
S31500003CD023F003031B041B0CA2F86030B2F860301B
S31500003CE09BB231B943F00103A2F860307047044A31
S31500003CF0ECE743F00203A2F8603070470000094089
S31500003D0000101140104B90F800C033F81C309BB2E5
S31500003D10022B01D0002070470C4B1B88012B10D0C2
S31500003D2000B54FF0010E8FB0094B10466A468DF86C
S31500003D3020C0A3F800E000F0A7F900200FB05DF85E
S31500003D4004FBD520704700BF341A0020F015002070
S31500003D501C16002030B5204B0446007899B033F885
S31500003D6010308DF848009BB2022B02D0002019B00B
S31500003D7030BD0D4671B1194B1B88012B27D001248C
S31500003D80174B294610460AAA1C8000F039F9002074
S31500003D9019B030BD002AEED1A3880AA8CBB1FFF72F
S31500003DA097FD00259122217804AB0C348DF8041080
S31500003DB094E8030083E80300082001A90395ADF801
S31500003DC008508DF8072000F0F7F82846CFE7D520F1
S31500003DD0CDE700F0CBF8E4E7341A0020F015002018
S31500003DE01C160020C378082B1DD810B54FEA430CCB
S31500003DF00E4C5FFA8CF314F803E00D4CCEEBCE03B9
S31500003E0004EBC303DA6000781A610A4A83F82000DB
S31500003E1052F82C20A3F81EE01846BDE81040996021
S31500003E205A6000F037BC0020704700BFEC0D01005F
S31500003E300418002018090020F0B590F803E0BEF140
S31500003E40080F3BD84FEA4E0E04460EF101031C48FC
S31500003E50DBB210F803C01B4BCCEBCC00BCF1060F59
S31500003E6003EBC00012D10A2791F800E0164E654612
S31500003E7086F808E04978C3F858617172C3F8607132
S31500003E8094F803E030224FEA4E0E05E002618160AD
S31500003E904FEACC021FFA8CF5A2EB0C0C227803EB4E
S31500003EA0CC0383F82020094A0EF1010E52F82E2089
S31500003EB0DD835A60BDE8F04000F0ECBB0020F0BDA9
S31500003EC0EC0D010004180020A009002018090020AC
S31500003ED0092900D97047FEF725BE00BF092901D977
S31500003EE00020704708B5FFF7B5F800F0030008BDDD
S31500003EF009290FD810B541B10446FEF7EBFF20465D
S31500003F00FFF75CF8C0F30A0010BDFEF79FFFC0F391
S31500003F100A0010BD00207047092901D9002070470A
S31500003F2010B50446FEF7D6FF2046FEF7EBFF00F07D
S31500003F30100010BD092901D90020704710B50446AC
S31500003F40FEF7C8FF2046FEF7DDFF00F4404010BD37
S31500003F50092900D9704738B50C460546FFF7CCF855
S31500003F6021462846BDE83840FFF7E8B8092900D9B8
S31500003F7070470122FFF73AB9092900D9704738B5C9
S31500003F800C460546FEF776FA21462846BDE8384037
S31500003F900222FFF757B900BF08B5FEF751FB00F044
S31500003FA00700013880B2032896BF024B002033F881
S31500003FB0100008BDFC0D010030B58E460E4D2B7865
S31500003FC003EBC30CEA1805EB8C0C01330CF10C0C5B
S31500003FD09070DCB2BEE80F00ACE80F00BEE80F0040
S31500003FE0ACE80F00DEF80030092CCCF800308ABFB0
S31500003FF000232C702B7030BD8816002000F0F0B81E
S3150000400070B50125144600221C4B1D801C4B186000
S315000040101C482023016011462046FEF76DFA002158
S315000040202046FEF709FD00212046FEF75BFE002133
S315000040302246084600F02CFD0128054605D020F052
S315000040400206B6B25EB1284670BD20460021FFF7D3
S315000040503FFF20460021FFF789FF284670BD314605
S315000040602046FEF799FD31462046FFF731FF2046F0
S315000040703146FFF77BFF284670BD00BFF0150020D4
S31500004080281300205013002038B501240D460F498F
S3150000409000230C8014460E4A194610600D481A4635
S315000040A005602046FEF728FA20460021FEF7C4FCEC
S315000040B020460021FEF7FCFC20460021FFF708FF02
S315000040C02046BDE838400021FFF750BFF01500201C
S315000040D0281300205013002038B50C460021054651
S315000040E0184A194B204611801980FEF785FD0021DC
S315000040F02046FEF7F9FC00212046FEF72FFD94F836
S3150000410020300021012B0CBF4FF400624FF4806277
S315000041102046FEF7D9FB25F00203052B07D0082D14
S315000041200AD094F82000BDE83840FFF753BD20467A
S31500004130BDE83840FFF7CCBB2046BDE8384000213B
S31500004140FEF798B9F01500201C16002003464FF024
S31500004150010C00B5074A8BB093F82030032001A963
S31500004160A2F800C08DF80430FFF726FF0BB05DF80B
S3150000417004FB00BF78130020034600B58BB093F80C
S315000041802030042001A98DF80430FFF715FF0BB08D
S315000041905DF804FB034600B58BB093F8203005208C
S315000041A001A98DF80430FFF707FF0BB05DF804FB9B
S315000041B0704700BF094B1A88012A00D070470022B9
S315000041C000B58BB090F820C001A906208DF804C078
S315000041D01A80FFF7F1FE0BB05DF804FB78130020A0
S315000041E030B5764C91B094F8513094F850209A42FC
S315000041F001D111B030BD04EBC301486834F8332057
S315000042008078013A49888DF82800142A1BD8DFE8FF
S3150000421002F0736D671A1A1A1A1A1A1A1A1A1A1A41
S315000042201A1A590B1A4C2800654B5B6A002B00F0D2
S315000042308D80002202A81146019098470198FFF749
S3150000424035FB94F851305F4A0133DBB2A2FB03120F
S31500004250D20802EB8202A3EB420384F8513011B07C
S3150000426030BD11F0070559D1574B1B88012B00F0C3
S315000042709080564B1B8813F0600F03F0600200F02D
S315000042808C805348534A5449128803800B884280D5
S315000042908380524A4A4B1288DB6AC28013B1294690
S315000042A002AA984794F85130CDE701F07002402AEF
S315000042B02ED027D8102AC6D102A800F01BFF94F8EA
S315000042C05130C0E7FEF768F99DF8280000F0B6FF08
S315000042D0402802A835D000F037FF94F85130B2E7F5
S315000042E002A800F0E5FA94F85130ACE702A800F015
S315000042F0E5FA94F85130A6E702A800F0A9FA94F876
S315000043005130A0E7602A03D001F0500150299AD11C
S3150000431002A800F05DFF94F8513094E701F0050320
S31500004320012B33D0052D31D0284B1B8813F0600F9D
S31500004330A7D1013D042D3AD8DFE805F0221C100A6A
S31500004340160000F0F5FE94F851307CE702A876E7F7
S3150000435002A801F095FB94F8513074E702A801F029
S315000043609BF994F851306EE702A801F097F994F89A
S31500004370513068E702A801F029FB94F8513062E752
S3150000438002A801F03BF894F851305CE7FFF73AFADF
S31500004390CAE702A8FFF768FA6BE7114B114902A8B2
S315000043A01A800A8000F0EAFF94F851304BE70720A4
S315000043B002A9FFF791FE94F8513044E72416002035
S315000043C07C150020CDCCCCCC1E160020001600207B
S315000043D0F815002002160020F4150020F61500201E
S315000043E01C160020F015002038B50F4BC58B04466F
S315000043F043F82500FFF72AFA012806D02846224668
S315000044000721FFF717FB002038BD29462046FFF796
S3150000441083FD20B9284600F0C7FB002038BD28469A
S3150000442000F008FB002038BD10120020002110B457
S31500004430054C064B21804FF4FF7205485DF8044B8E
S3150000444019800CF000B900BF7A150020F215002083
S315000044507C1300208446044B4FF4FF72002103486E
S31500004460A3F800C00CF0EFB87A1500207C130020EA
S31500004470FF22044B03F1200123F8022F8B421A84FA
S31500004480FAD17047AE150020014B9B68187970472A
S315000044907C15002000B5134B996891F800E091F85F
S315000044A002C00EEB0102C9784CEA012CE64514D293
S315000044B01FFA8EF34FF0000E5178042904D191783B
S315000044C0814208BF92F803E011780B449BB2634522
S315000044D00A44F1D370465DF804FB4FF0000E7046B7
S315000044E05DF804FB7C1500202DE9F041244B9B6808
S315000044F0DD7893F802E01C780EEB052E1FFA8EFE8F
S315000045007445234434D20026A2B2B04634461D4F29
S315000045101BE0BCF1050F12D1B44210D29D7893F97D
S3150000452002C005F00F054FEADC7C05EB0C1508EB25
S31500004530040C5FFA8CFC013427F815C0A4B21D7870
S315000045402A4492B272452B4412D293F801C0BCF1B0
S31500004550040FDED19D7885420CD093F804C0C44484
S315000045601FFA8CF81D782A44D2B272452B44ECD33C
S31500004570BDE8F081DD788D42EFD11E79F2E700BF0C
S315000045807C150020B0150020044B188820B1044B80
S315000045909B68D879C0F34010704700BF7A15002099
S315000045A07C150020024B9B68D879C0F380107047B9
S315000045B07C150020092800D9704738B504461546F1
S315000045C000F032FB032807D8431E022B22D8DFE86F
S315000045D003F00C02130038BDFF2814D12A462046EA
S315000045E0BDE838401521FFF725BA2A462046BDE822
S315000045F03840042100F090BB2A462046BDE83840EA
S315000046000521FFF717BA2A462046BDE8384007219C
S31500004610FFF710BA2A462046BDE83840032100F0CD
S315000046207BBB00BF092800D9704770B504460E460B
S31500004630154601461046FEF757FA2A4631462046E9
S3150000464000F026FA022813D009D821462846FEF79C
S31500004650A3FA21462846BDE87040FFF739BCFF287B
S3150000466010D12A462046BDE870401521FFF7E2B971
S3150000467021462846FEF71CFA21462846BDE870402A
S31500004680FFF726BC2A462046BDE870400721FFF703
S31500004690D1B900BFC18BC1B10D4B10B553F8213054
S315000046A0044623B1FFF746FCB0F5404F0BD1204638
S315000046B0FFF7CCF8012801D0FF2010BD2046BDE849
S315000046C01040FFF791BED52010BDFF20704700BFF8
S315000046D0101200204A6830B4D2E90051D468D1B132
S315000046E090680E4BC3E90054C3E9021015690C4CDF
S315000046F00C480D49127DC3E90454C3E906010B4C6D
S315000047000B490C48C3E908410B4983F83020C3E93B
S315000047100A0130BC704791680846E2E77C15002024
S31500004720A94700004D410000B54100007941000055
S3150000473095410000B1410000BD5B00002DE9F04746
S31500004740047894422BD2064617469A464FF0000943
S315000047504FF0FF0808E0BCF1050F16D095F800C031
S315000047606444A4B2A7420DD9351995F801C0BCF12D
S31500004770040FF0D195F800C095F805906444A4B2F2
S31500004780A742F1D84046BDE8F0874A46514628463A
S3150000479000F096FB002818BF4FF00008DEE74FF048
S315000047A0FF084046BDE8F087F0B5274B04461A8857
S315000047B00E46012A8DB035D003AFC02E234B24D030
S315000047C09D68002D3AD002226A70DB681BB1072271
S315000047D05A7005B9FEE7EB78AA7894F8200002EB48
S315000047E0032292B2019200F0F1FB23463146019A70
S315000047F02846FFF7A3FF94F82030394601208DF8AC
S315000048000C30FFF7D9FB0DB0F0BDD3E90225CAB1D4
S3150000481007215170DB68002BDBD002225A70002D75
S31500004820D8D0D8E7002290F8201003AF8DF80C10EE
S31500004830062039461A80FFF7BFFBBEE7DB68002B70
S31500004840C5D1C7E72B46E6E7781300207C15002084
S31500004850CB0711D50021024610B50446084600F0E4
S31500004860E3F9032812D009D8022819D02046BDE85A
S3150000487010400021FEF738B900F054BAFF2815D1D0
S315000048802146BDE810400720FFF726BC2046002140
S31500004890FEF7D2F82146BDE810400520FFF71CBC04
S315000048A02046BDE810400021FFF760BB10BD00BFE9
S315000048B0CB0700D5704700F067BA00BFCB0717D506
S315000048C00021024610B50446084600F0E1F8022829
S315000048D011D005D82046BDE810400021FEF78CB95E
S315000048E0FF2807D12146BDE810400720FFF7F4BB9B
S315000048F000F076BA10BD2046BDE810400021FFF753
S3150000490035BB00BF38B5EFF30383124A103B5BB2E9
S3150000491052F82350104CA878FFF7DCF894F8503082
S31500004920D80004EBC3035D60811CAA7818462144B5
S31500004930FEF76EFE94F85030084A0133DBB2A2FB54
S315000049400312D20802EB8202A3EB420384F8503032
S3150000495038BD00BF041B002024160020CDCCCCCCD3
S315000049602DE9F0410446154610460F462146FDF74F
S3150000497081FD21462846FEF7B7F821462846FEF770
S31500004980EDF8DFF84C8021462846FEF735F921463A
S315000049902846FDF7DBFD58F82460A6B10B4B2146EF
S315000049A053F8243028463361B784FEF753FB0022C0
S315000049B0014658F824004368F1841146C483984799
S315000049C0002348F82430BDE8F08100BF28130020FA
S315000049D01012002091F820104FEAD00C104A01EB7B
S315000049E0810101EB81010CF0100C00F00F00012396
S315000049F002EB81024CEA000C03E00A2B02F10A02E8
S31500004A000BD0518998B2012903F10103F5D191899F
S31500004A1001F01F018C45F0D17047FF20704700BFA1
S31500004A20601200200020704708B5FDF79BFDC0F31B
S31500004A30C01008BD092800D9704770B50446114B4F
S31500004A40014653F8205028462E69FDF713FD0E4BFC
S31500004A50AA6843F824600D4B214643F824202846D3
S31500004A60FEF740F921462846FEF7F4F820462A4686
S31500004A700021FFF7D7FD21462846BDE87040FFF725
S31500004A8075BA00BF10120020281300205013002012
S31500004A902DE9F04F092883B058D8154650EA01028F
S31500004AA004460E4666D00A46002301462846FDF710
S31500004AB0F5FCFF284AD021462846FDF795FB074618
S31500004AC0DFF8DC9021462846FFF712FA59F8243021
S31500004AD0BB46BB422AD94FF0020821462846FFF7BB
S31500004AE0FDF90346DFF8BCA0214628460193FDF7F1
S31500004AF0C1FC2B46314638465AF82420FEF7ECFE18
S31500004B0059F824304AF824009B4525D8DB1B49F880
S31500004B10243021462846FEF7E5F8019B03F00303FF
S31500004B20012B31D0404603B0BDE8F08F43B39FB2AE
S31500004B30B7FBF0F800FB18701FFA80F8B8F1000F09
S31500004B402AD1002C08BF4FF00208C6E74FF0FF0835
S31500004B50404603B0BDE8F08F00233146284649F8A9
S31500004B602430FDF7F7FE0304D3D431462846FDF77B
S31500004B702BFFCEE7202311462846FDF78FFC98E74A
S31500004B801F464FF00108A8E728462146FFF7EEF931
S31500004B90404603B0BDE8F08F4FF001089DE700BF27
S31500004BA02813002050130020092800D970471B4BFA
S31500004BB070B553F820600446014630463569FDF766
S31500004BC059FC0023164AB16842F82450154A30466B
S31500004BD042F8241021461A46FDF78EFC214630463F
S31500004BE0FFF786F94DB1B5FBF0F200FB125595B90A
S31500004BF02146304692B2FDF795FC21463046FFF736
S31500004C00B5F921463046FDF753FF21463046BDE84B
S31500004C107040FFF75DB90132EAE700BF10120020CD
S31500004C20281300205013002009282DE9F04734D816
S31500004C30164604460A468946002301463046FDF7D5
S31500004C402DFCFF2829D0324FC0F30B0521463046F4
S31500004C50FFF74EF957F82430AA46AB422DD33CD085
S31500004C6005B3B5FBF0F300FB135080B2002847D123
S31500004C704FF002082846274D3346494655F824206A
S31500004C80FEF78EFE45F8240057F824304046A3EB85
S31500004C900A0347F82430BDE8F0874FF0FF08404686
S31500004CA0BDE8F08721463046FDF7E4FB4FF00108EA
S31500004CB049463046FDF7C0FEE6E721463046FDF799
S31500004CC0D9FB57F824304FF003089AB2924647F8BA
S31500004CD02450002DECD01546CCE74CB9B5FBF0F3CB
S31500004CE000FB135080B218B92A464FF00208F0E7CD
S31500004CF021463046FDF7BEFB4FF000082A46E8E79E
S31500004D0021463046FDF7B6FB4FF00108B2E700BF7B
S31500004D102813002050130020092800D97047FFF7F8
S31500004D201FBE00BF2DE9F843012480460E462746E4
S31500004D30DFF8509002E001340A2C1AD007FA04F387
S31500004D401E42A5B2F7D029464046FDF7CBFF59F8DB
S31500004D502430002BEFD029464046FFF7DDF8102817
S31500004D6009D04246002128460134FFF723FC0A2CCD
S31500004D70E4D1BDE8F883284642460021FFF752FCFD
S31500004D80D9E700BF101200202DE9F8430124804620
S31500004D900D462746DFF8449007FA04F31D42A6B2F3
S31500004DA009D059F8243033B131464046FFF7C2F8EE
S31500004DB0B0F5404F04D001340A2CEDD1BDE8F8839C
S31500004DC04046FDF7B3FF10F4004F4246304614BF8D
S31500004DD005210721FEF72EFEEDE700BF1012002089
S31500004DE02DE9F047012406460D462746DFF8C89010
S31500004DF0DFF8C88007FA04F31D421FFA84FA25D0AB
S31500004E0059F8243013B396F8203003EB830304EBF0
S31500004E10430338F81330012B18D051463046FFF7BC
S31500004E205DF8820736D451463046FEF713F943043F
S31500004E3039D496F82030504603EB830304EB430342
S31500004E403246012128F81370FFF78AFD0134062C3B
S31500004E50D0D14FF00108DFF8609008FA04F31D4244
S31500004E60A7B20ED059F824305BB139463046FFF769
S31500004E7035F810F0020F3246384607D00621FEF705
S31500004E80D9FD01340A2CE8D1BDE8F0870121FFF7EE
S31500004E9067FDF6E75046324606210134FEF7CAFDA5
S31500004EA0062CA7D1D5E7514630460134FDF774FEEE
S31500004EB0062C9FD1CDE700BF10120020381200202B
S31500004EC04378052B0AD130B5C37803F00303022BD0
S31500004ED02BD0032B05D00023184630BD00231846DF
S31500004EE0704790F9023090F802C0002BF3DA022ADC
S31500004EF0F1D1642291F82050334902FB0512948FB8
S31500004F00002CE8D10CF00F0343F4004343F01003E8
S31500004F108088D38701239D42A2F84200A2F844402C
S31500004F2093874FD10622134620E090F902C090F8ED
S31500004F3002E0BCF1000F20DB0A2ACCD1642291F8F2
S31500004F402040214902FB0412958A002DC3D1808896
S31500004F50958350830EF00F0040F48540D0820120E7
S31500004F6084429082B8D11A4647F6484402EB820240
S31500004F7001EB4202A2F86840AEE70A2AABD14FF035
S31500004F80640C91F8203010490CFB031CBCF80A4055
S31500004F90002CA0D10EF00F0242F4844242F010021F
S31500004FA08088ACF80C2001229342ACF81240ACF891
S31500004FB01000ACF80A2003D11A4647F60844D5E794
S31500004FC0134689E7062387E76012002000B56FF0D5
S31500004FD0630E00210EFB00FE0E4B00EB800203F178
S31500004FE05A0C02EB820203EB82030CEB820C0EF1ED
S31500004FF0720E5A89012A07D101285981998108BF61
S3150000500023F80E10198259820A336345F1D15DF8EF
S3150000501004FB00BF601200202DE9F0410124642743
S315000050200546244E02E001340A2C2BD095F82020A8
S3150000503004EB840307FB02F202EB4303F35A012B52
S31500005040F1D100212846FDF7C7FB1FFA84F800F0CE
S315000050500F00804518D001212846FDF7BDFB00F062
S315000050600F0080451ED002212846FDF7B5FB00F053
S315000050700F0080450FD0414628460134FDF7DAF887
S315000050800A2CD3D1BDE8F081002328461A461946DA
S31500005090FDF732FADFE70023022228461946FDF71C
S315000050A02BFAE8E70023012228461946FDF724FAE1
S315000050B0D9E700BF60120020F8B501246427054631
S315000050C00B4E02E001340A2C11D095F8202004EB97
S315000050D0840307FB02F202EB4303F35A012BF1D1DF
S315000050E0A1B228460134FDF759F90A2CEDD1F8BDD5
S315000050F06012002038B504460C4D00F0BFF8FFF7EB
S3150000510095F92046FEF748FF6B691BB10146002260
S315000051102046984720460021FDF780FE2B68204652
S31500005120D979BDE83840FDF7ADBE00BF7C1500203B
S3150000513010B504460A20FEF7F5F994F82000BDE8FC
S315000051401040FEF7DFBC00BF2DE9F0410546FDF734
S315000051502FFA95F82000FEF7E9FC0023184A0124EF
S315000051601380184A6427184E138001E00A2C19D0C0
S3150000517095F8203004EB840207FB03F303EB4203AC
S31500005180F35A1FFA84F8012B04F10104EED12A46E2
S3150000519008214046FEF74EFC41462846FDF7FEF83C
S315000051A00A2CE5D1094BDB691BB100221E212846DA
S315000051B0984795F82000BDE8F041FEF79BBC00BF7C
S315000051C07A150020F2150020601200207C150020C0
S315000051D070B5044690F82000FEF7B8FC94F820005D
S315000051E0FDF728FD05462046FDF710FA6B0603D5A8
S315000051F000F00300012809D094F82000FEF7CAFC4D
S3150000520094F82000BDE87040FEF7B4BC94F8200086
S31500005210FEF770FC00F034F8054B1B6A33B1054904
S315000052202046BDE8704000220988184770BD00BFBF
S315000052307C150020F2150020FEF74ABB70B5064625
S315000052403046FDF7F7FC05460A20FEF767F93046BB
S31500005250FDF7F0FC04460A20FEF760F93046FDF73C
S31500005260E9FC85EA040344401C432306E8D415F010
S31500005270800F14BF4020432070BD00BF704700BFA1
S31500005280704700BF2DE9F0410E4600210C464FF055
S3150000529028080546402225480BF0D5F921464FF44B
S315000052A0FF7223480BF0CFF9224B21461C80224B7C
S315000052B034221C80214B22481C80224B224F1C800A
S315000052C0224B1C80224B1C80224B1C80224B1C80B4
S315000052D0224B1C605C60224B1C600BF0B4F942460A
S315000052E0214620480BF0AFF9424621461E480BF0F6
S315000052F0AAF94FF00E3C1D4B424621461C605C60ED
S315000053009C60DC601C611A48C7F800C0C7F804C07E
S31500005310A7F808C00BF097F9164A174B31462846EE
S3150000532014801C80BDE8F041FFF7D4B9B015002009
S315000053307C130020201600200016002002160020F4
S315000053407C150020F41500208A160020F615002092
S31500005350F01500201C16002078130020F8150020F8
S3150000536004160020501300202813002008160020E1
S31500005370101200207A150020F21500202DE9F041C8
S315000053800025174B174A1B88158003F47F43B3F596
S31500005390106F0ED0B3F5306F19D1134B9B6AB3B1B2
S315000053A0124A134914882A4631F81410BDE8F04110
S315000053B01847104E104F04463088B7F80080FFF7A4
S315000053C049F83388434502D0074B9B690BB9BDE8C2
S315000053D0F0812A4620463988BDE8F041184700BFCB
S315000053E0001600201C1600207C150020F415002055
S315000053F07C130020021600207A1500208E4B0246F0
S31500005400198801F47F43B3F5006F5AD030B583B0E5
S3150000541017D8002B31D0B3F5C06F35D111F01F036B
S3150000542038D1864B19880B0A013BCCB2062B2BD8F8
S31500005430DFE813F07900B500A6002A002A00C600AE
S315000054408600B3F5206F1FD101F01F0101291BD182
S315000054507A4B1B88C3B97A4B1888012814D1794B2B
S315000054601B88FE2B10D8784C784934F813300B7013
S3150000547003B0BDE83040FEF7C3BD704B1B881BB9B7
S315000054806F4C2488022C30D0104603B0BDE8304063
S31500005490FEF71EBA012BF7D16A4B6D481B88674C85
S315000054A0674D83806B4B24880180DB6A29884480A2
S315000054B0C180002B00F09E80002103B0BDE8304083
S315000054C0184760485D4BB0F800C01B8801F01F000C
S315000054D043EA0C01014389B221B9594B18880128C6
S315000054E000F082801046FEF7F3B95B4C01F01F0115
S315000054F00129238000F0908002297DD00029C3D1A4
